{
  "_format": "hh-sol-artifact-1",
  "contractName": "SafuPay",
  "sourceName": "contracts/safuPay.sol",
  "abi": [
    {
      "inputs": [],
      "stateMutability": "nonpayable",
      "type": "constructor"
    },
    {
      "anonymous": false,
      "inputs": [
        {
          "indexed": true,
          "internalType": "uint256",
          "name": "id",
          "type": "uint256"
        },
        {
          "indexed": true,
          "internalType": "address",
          "name": "sender",
          "type": "address"
        }
      ],
      "name": "Cancelled",
      "type": "event"
    },
    {
      "anonymous": false,
      "inputs": [
        {
          "indexed": true,
          "internalType": "uint256",
          "name": "id",
          "type": "uint256"
        },
        {
          "indexed": true,
          "internalType": "uint256",
          "name": "chainId",
          "type": "uint256"
        },
        {
          "indexed": true,
          "internalType": "address",
          "name": "recipient",
          "type": "address"
        },
        {
          "indexed": false,
          "internalType": "uint256",
          "name": "amount",
          "type": "uint256"
        },
        {
          "indexed": false,
          "internalType": "address",
          "name": "token",
          "type": "address"
        }
      ],
      "name": "Claimed",
      "type": "event"
    },
    {
      "anonymous": false,
      "inputs": [
        {
          "indexed": true,
          "internalType": "uint256",
          "name": "id",
          "type": "uint256"
        },
        {
          "indexed": true,
          "internalType": "uint256",
          "name": "chainId",
          "type": "uint256"
        },
        {
          "indexed": true,
          "internalType": "address",
          "name": "sender",
          "type": "address"
        },
        {
          "indexed": false,
          "internalType": "address",
          "name": "recipient",
          "type": "address"
        },
        {
          "indexed": false,
          "internalType": "address",
          "name": "token",
          "type": "address"
        },
        {
          "indexed": false,
          "internalType": "uint256",
          "name": "amount",
          "type": "uint256"
        },
        {
          "indexed": false,
          "internalType": "bytes32",
          "name": "claimHash",
          "type": "bytes32"
        },
        {
          "indexed": false,
          "internalType": "uint256",
          "name": "createdAt",
          "type": "uint256"
        }
      ],
      "name": "DepositCreated",
      "type": "event"
    },
    {
      "anonymous": false,
      "inputs": [
        {
          "indexed": true,
          "internalType": "uint256",
          "name": "id",
          "type": "uint256"
        },
        {
          "indexed": true,
          "internalType": "address",
          "name": "sender",
          "type": "address"
        }
      ],
      "name": "Reclaimed",
      "type": "event"
    },
    {
      "inputs": [],
      "name": "CANCEL_WINDOW",
      "outputs": [
        {
          "internalType": "uint256",
          "name": "",
          "type": "uint256"
        }
      ],
      "stateMutability": "view",
      "type": "function"
    },
    {
      "inputs": [],
      "name": "RECLAIM_DELAY",
      "outputs": [
        {
          "internalType": "uint256",
          "name": "",
          "type": "uint256"
        }
      ],
      "stateMutability": "view",
      "type": "function"
    },
    {
      "inputs": [
        {
          "internalType": "uint256",
          "name": "id",
          "type": "uint256"
        }
      ],
      "name": "cancelBySender",
      "outputs": [],
      "stateMutability": "nonpayable",
      "type": "function"
    },
    {
      "inputs": [
        {
          "internalType": "uint256",
          "name": "id",
          "type": "uint256"
        },
        {
          "internalType": "string",
          "name": "claimCode",
          "type": "string"
        }
      ],
      "name": "claim",
      "outputs": [],
      "stateMutability": "nonpayable",
      "type": "function"
    },
    {
      "inputs": [
        {
          "internalType": "string",
          "name": "claimCode",
          "type": "string"
        },
        {
          "internalType": "address",
          "name": "recipient",
          "type": "address"
        }
      ],
      "name": "computeClaimHash",
      "outputs": [
        {
          "internalType": "bytes32",
          "name": "",
          "type": "bytes32"
        }
      ],
      "stateMutability": "view",
      "type": "function"
    },
    {
      "inputs": [
        {
          "internalType": "uint256",
          "name": "chainId",
          "type": "uint256"
        },
        {
          "internalType": "address",
          "name": "contractAddr",
          "type": "address"
        },
        {
          "internalType": "string",
          "name": "claimCode",
          "type": "string"
        },
        {
          "internalType": "address",
          "name": "recipient",
          "type": "address"
        }
      ],
      "name": "computeClaimHashWithChain",
      "outputs": [
        {
          "internalType": "bytes32",
          "name": "",
          "type": "bytes32"
        }
      ],
      "stateMutability": "pure",
      "type": "function"
    },
    {
      "inputs": [
        {
          "internalType": "address",
          "name": "recipient",
          "type": "address"
        },
        {
          "internalType": "address",
          "name": "token",
          "type": "address"
        },
        {
          "internalType": "uint256",
          "name": "amount",
          "type": "uint256"
        },
        {
          "internalType": "bytes32",
          "name": "claimHash",
          "type": "bytes32"
        }
      ],
      "name": "createDepositERC20",
      "outputs": [
        {
          "internalType": "uint256",
          "name": "",
          "type": "uint256"
        }
      ],
      "stateMutability": "nonpayable",
      "type": "function"
    },
    {
      "inputs": [
        {
          "internalType": "address",
          "name": "recipient",
          "type": "address"
        },
        {
          "internalType": "bytes32",
          "name": "claimHash",
          "type": "bytes32"
        }
      ],
      "name": "createDepositETH",
      "outputs": [
        {
          "internalType": "uint256",
          "name": "",
          "type": "uint256"
        }
      ],
      "stateMutability": "payable",
      "type": "function"
    },
    {
      "inputs": [
        {
          "internalType": "uint256",
          "name": "",
          "type": "uint256"
        }
      ],
      "name": "deposits",
      "outputs": [
        {
          "internalType": "address",
          "name": "sender",
          "type": "address"
        },
        {
          "internalType": "address",
          "name": "recipient",
          "type": "address"
        },
        {
          "internalType": "address",
          "name": "token",
          "type": "address"
        },
        {
          "internalType": "uint256",
          "name": "amount",
          "type": "uint256"
        },
        {
          "internalType": "uint256",
          "name": "originalAmount",
          "type": "uint256"
        },
        {
          "internalType": "bytes32",
          "name": "claimHash",
          "type": "bytes32"
        },
        {
          "internalType": "uint256",
          "name": "createdAt",
          "type": "uint256"
        },
        {
          "internalType": "bool",
          "name": "claimed",
          "type": "bool"
        },
        {
          "internalType": "bool",
          "name": "reclaimed",
          "type": "bool"
        }
      ],
      "stateMutability": "view",
      "type": "function"
    },
    {
      "inputs": [],
      "name": "getChainId",
      "outputs": [
        {
          "internalType": "uint256",
          "name": "",
          "type": "uint256"
        }
      ],
      "stateMutability": "view",
      "type": "function"
    },
    {
      "inputs": [
        {
          "internalType": "uint256",
          "name": "id",
          "type": "uint256"
        }
      ],
      "name": "getDeposit",
      "outputs": [
        {
          "internalType": "address",
          "name": "sender",
          "type": "address"
        },
        {
          "internalType": "address",
          "name": "recipient",
          "type": "address"
        },
        {
          "internalType": "address",
          "name": "token",
          "type": "address"
        },
        {
          "internalType": "uint256",
          "name": "amount",
          "type": "uint256"
        },
        {
          "internalType": "uint256",
          "name": "originalAmount",
          "type": "uint256"
        },
        {
          "internalType": "bytes32",
          "name": "claimHash",
          "type": "bytes32"
        },
        {
          "internalType": "uint256",
          "name": "createdAt",
          "type": "uint256"
        },
        {
          "internalType": "bool",
          "name": "claimed",
          "type": "bool"
        },
        {
          "internalType": "bool",
          "name": "reclaimed",
          "type": "bool"
        }
      ],
      "stateMutability": "view",
      "type": "function"
    },
    {
      "inputs": [],
      "name": "nextId",
      "outputs": [
        {
          "internalType": "uint256",
          "name": "",
          "type": "uint256"
        }
      ],
      "stateMutability": "view",
      "type": "function"
    },
    {
      "inputs": [
        {
          "internalType": "uint256",
          "name": "id",
          "type": "uint256"
        }
      ],
      "name": "reclaim",
      "outputs": [],
      "stateMutability": "nonpayable",
      "type": "function"
    },
    {
      "stateMutability": "payable",
      "type": "receive"
    }
  ],
  "bytecode": "0x6080604052348015600e575f5ffd5b5060015f556116b7806100205f395ff3fe6080604052600436106100d1575f3560e01c8063855abc5a1161007c578063b02c43d011610057578063b02c43d01461028b578063da70b0f214610304578063e12edb1314610323578063fba0d9a414610342575f5ffd5b8063855abc5a1461017d5780639f9fb9681461019c578063ad0de68b1461026c575f5ffd5b806335f90b29116100ac57806335f90b291461013d57806361b8ce8c1461015357806375c79f2814610168575f5ffd5b8063268b15ed146100dc5780632dabbeed146100fd5780633408e4701461011c575f5ffd5b366100d857005b5f5ffd5b3480156100e7575f5ffd5b506100fb6100f636600461141a565b610355565b005b348015610108575f5ffd5b506100fb610117366004611462565b6106c4565b348015610127575f5ffd5b50465b6040519081526020015b60405180910390f35b348015610148575f5ffd5b5061012a62278d0081565b34801561015e575f5ffd5b5061012a60025481565b348015610173575f5ffd5b5061012a61012c81565b348015610188575f5ffd5b5061012a610197366004611494565b610960565b3480156101a7575f5ffd5b506102156101b6366004611462565b5f908152600160208190526040909120805491810154600282015460038301546004840154600585015460068601546007909601546001600160a01b039788169895881697909416959294919390929160ff8083169261010090041690565b604080516001600160a01b039a8b168152988a1660208a015296909816958701959095526060860193909352608085019190915260a084015260c0830152151560e082015290151561010082015261012001610134565b348015610277575f5ffd5b5061012a6102863660046114d3565b610d2f565b348015610296575f5ffd5b506102156102a5366004611462565b600160208190525f9182526040909120805491810154600282015460038301546004840154600585015460068601546007909601546001600160a01b039788169795861696959094169492939192909160ff8082169161010090041689565b34801561030f575f5ffd5b5061012a61031e366004611523565b610d68565b34801561032e575f5ffd5b506100fb61033d366004611462565b610da3565b61012a61035036600461158d565b61103e565b60025f54036103ab5760405162461bcd60e51b815260206004820152601a60248201527f5265656e7472616e637947756172643a207265656e7472616e7400000000000060448201526064015b60405180910390fd5b60025f908155838152600160205260409020600781015460ff161580156103dc57506007810154610100900460ff16155b6104285760405162461bcd60e51b815260206004820152601060248201527f696e616374697665206465706f7369740000000000000000000000000000000060448201526064016103a2565b5f81600301541161047b5760405162461bcd60e51b815260206004820152600860248201527f6e6f2066756e647300000000000000000000000000000000000000000000000060448201526064016103a2565b60018101546001600160a01b031633146104d75760405162461bcd60e51b815260206004820152600e60248201527f6f6e6c7920726563697069656e7400000000000000000000000000000000000060448201526064016103a2565b60018101546040515f916105019146913091889188916001600160a01b03909116906020016115b5565b6040516020818303038152906040528051906020012090508160050154811461056c5760405162461bcd60e51b815260206004820152601260248201527f696e76616c696420636c61696d20636f6465000000000000000000000000000060448201526064016103a2565b60078201805460ff1916600117905560038201805460028401545f909255906001600160a01b0316806106025760018401546105b1906001600160a01b0316836112d6565b6105fd5760405162461bcd60e51b815260206004820152601360248201527f455448207472616e73666572206661696c65640000000000000000000000000060448201526064016103a2565b610668565b600184015461061c9082906001600160a01b031684611341565b6106685760405162461bcd60e51b815260206004820152601560248201527f4552433230207472616e73666572206661696c6564000000000000000000000060448201526064016103a2565b6001840154604080518481526001600160a01b0384811660208301529092169146918a917fb6102727b63ab320a9860bda642b3dc222ff362bcfd0f91a9fab74101e2281d1910160405180910390a4505060015f555050505050565b60025f54036107155760405162461bcd60e51b815260206004820152601a60248201527f5265656e7472616e637947756172643a207265656e7472616e7400000000000060448201526064016103a2565b60025f90815581815260016020526040902080546001600160a01b0316331461076e5760405162461bcd60e51b815260206004820152600b60248201526a37b7363c9039b2b73232b960a91b60448201526064016103a2565b600781015460ff1615801561078d57506007810154610100900460ff16155b6107c45760405162461bcd60e51b8152602060048201526008602482015267696e61637469766560c01b60448201526064016103a2565b62278d0081600601546107d79190611630565b4210156108265760405162461bcd60e51b815260206004820152600960248201527f746f6f206561726c79000000000000000000000000000000000000000000000060448201526064016103a2565b60078101805461ff00191661010017905560038101805460028301545f909255906001600160a01b0316806108bb57825461086a906001600160a01b0316836112d6565b6108b65760405162461bcd60e51b815260206004820152601260248201527f455448207265636c61696d206661696c6564000000000000000000000000000060448201526064016103a2565b61091e565b82546108d29082906001600160a01b031684611341565b61091e5760405162461bcd60e51b815260206004820152601460248201527f4552433230207265636c61696d206661696c656400000000000000000000000060448201526064016103a2565b82546040516001600160a01b039091169085907fad9cdcb2840b4617f049a64be1811ef181a6c0925da58f0a537a37c93052bdd3905f90a3505060015f555050565b5f60025f54036109b25760405162461bcd60e51b815260206004820152601a60248201527f5265656e7472616e637947756172643a207265656e7472616e7400000000000060448201526064016103a2565b60025f5582610a035760405162461bcd60e51b815260206004820152600b60248201527f7a65726f20616d6f756e7400000000000000000000000000000000000000000060448201526064016103a2565b6001600160a01b038416610a595760405162461bcd60e51b815260206004820152600d60248201527f696e76616c696420746f6b656e0000000000000000000000000000000000000060448201526064016103a2565b6040517f23b872dd000000000000000000000000000000000000000000000000000000008152336004820152306024820152604481018490525f906001600160a01b038616906323b872dd906064016020604051808303815f875af1158015610ac4573d5f5f3e3d5ffd5b505050506040513d601f19601f82011682018060405250810190610ae89190611643565b905080610b375760405162461bcd60e51b815260206004820152601360248201527f7472616e7366657246726f6d206661696c65640000000000000000000000000060448201526064016103a2565b600280545f9182610b4783611669565b919050559050604051806101200160405280336001600160a01b03168152602001886001600160a01b03168152602001876001600160a01b031681526020018681526020018681526020018581526020014281526020015f151581526020015f151581525060015f8381526020019081526020015f205f820151815f015f6101000a8154816001600160a01b0302191690836001600160a01b031602179055506020820151816001015f6101000a8154816001600160a01b0302191690836001600160a01b031602179055506040820151816002015f6101000a8154816001600160a01b0302191690836001600160a01b03160217905550606082015181600301556080820151816004015560a0820151816005015560c0820151816006015560e0820151816007015f6101000a81548160ff0219169083151502179055506101008201518160070160016101000a81548160ff021916908315150217905550905050336001600160a01b031646827f8786859d15e7ce960ff2ccace10e2e8fbbb127b9bd1db1833d65bb161215af468a8a8a8a42604051610d199594939291906001600160a01b03958616815293909416602084015260408301919091526060820152608081019190915260a00190565b60405180910390a460015f559695505050505050565b5f4630858585604051602001610d499594939291906115b5565b6040516020818303038152906040528051906020012090509392505050565b5f8585858585604051602001610d829594939291906115b5565b60405160208183030381529060405280519060200120905095945050505050565b60025f5403610df45760405162461bcd60e51b815260206004820152601a60248201527f5265656e7472616e637947756172643a207265656e7472616e7400000000000060448201526064016103a2565b60025f90815581815260016020526040902080546001600160a01b03163314610e4d5760405162461bcd60e51b815260206004820152600b60248201526a37b7363c9039b2b73232b960a91b60448201526064016103a2565b600781015460ff16158015610e6c57506007810154610100900460ff16155b610ea35760405162461bcd60e51b8152602060048201526008602482015267696e61637469766560c01b60448201526064016103a2565b61012c8160060154610eb59190611630565b421115610f045760405162461bcd60e51b815260206004820152601460248201527f63616e63656c2077696e646f772070617373656400000000000000000000000060448201526064016103a2565b60078101805461ff00191661010017905560038101805460028301545f909255906001600160a01b031680610f99578254610f48906001600160a01b0316836112d6565b610f945760405162461bcd60e51b815260206004820152601160248201527f45544820726566756e64206661696c656400000000000000000000000000000060448201526064016103a2565b610ffc565b8254610fb09082906001600160a01b031684611341565b610ffc5760405162461bcd60e51b815260206004820152601360248201527f455243323020726566756e64206661696c65640000000000000000000000000060448201526064016103a2565b82546040516001600160a01b039091169085907f26deca31ff8139a06c52453ce8985d34f7648a6d9af1d283c4063d052c355a0f905f90a3505060015f555050565b5f60025f54036110905760405162461bcd60e51b815260206004820152601a60248201527f5265656e7472616e637947756172643a207265656e7472616e7400000000000060448201526064016103a2565b60025f55346110e15760405162461bcd60e51b815260206004820152600a60248201527f7a65726f2076616c75650000000000000000000000000000000000000000000060448201526064016103a2565b600280545f91826110f183611669565b919050559050604051806101200160405280336001600160a01b03168152602001856001600160a01b031681526020015f6001600160a01b031681526020013481526020013481526020018481526020014281526020015f151581526020015f151581525060015f8381526020019081526020015f205f820151815f015f6101000a8154816001600160a01b0302191690836001600160a01b031602179055506020820151816001015f6101000a8154816001600160a01b0302191690836001600160a01b031602179055506040820151816002015f6101000a8154816001600160a01b0302191690836001600160a01b03160217905550606082015181600301556080820151816004015560a0820151816005015560c0820151816006015560e0820151816007015f6101000a81548160ff0219169083151502179055506101008201518160070160016101000a81548160ff021916908315150217905550905050336001600160a01b031646827f8786859d15e7ce960ff2ccace10e2e8fbbb127b9bd1db1833d65bb161215af46875f3489426040516112c39594939291906001600160a01b03958616815293909416602084015260408301919091526060820152608081019190915260a00190565b60405180910390a460015f559392505050565b5f815f036112e65750600161133b565b5f836001600160a01b0316836040515f6040518083038185875af1925050503d805f811461132f576040519150601f19603f3d011682016040523d82523d5f602084013e611334565b606091505b5090925050505b92915050565b6040517fa9059cbb0000000000000000000000000000000000000000000000000000000081526001600160a01b038381166004830152602482018390525f919085169063a9059cbb906044016020604051808303815f875af11580156113a9573d5f5f3e3d5ffd5b505050506040513d601f19601f820116820180604052508101906113cd9190611643565b949350505050565b5f5f83601f8401126113e5575f5ffd5b50813567ffffffffffffffff8111156113fc575f5ffd5b602083019150836020828501011115611413575f5ffd5b9250929050565b5f5f5f6040848603121561142c575f5ffd5b83359250602084013567ffffffffffffffff811115611449575f5ffd5b611455868287016113d5565b9497909650939450505050565b5f60208284031215611472575f5ffd5b5035919050565b80356001600160a01b038116811461148f575f5ffd5b919050565b5f5f5f5f608085870312156114a7575f5ffd5b6114b085611479565b93506114be60208601611479565b93969395505050506040820135916060013590565b5f5f5f604084860312156114e5575f5ffd5b833567ffffffffffffffff8111156114fb575f5ffd5b611507868287016113d5565b909450925061151a905060208501611479565b90509250925092565b5f5f5f5f5f60808688031215611537575f5ffd5b8535945061154760208701611479565b9350604086013567ffffffffffffffff811115611562575f5ffd5b61156e888289016113d5565b9094509250611581905060608701611479565b90509295509295909350565b5f5f6040838503121561159e575f5ffd5b6115a783611479565b946020939093013593505050565b8581526bffffffffffffffffffffffff198560601b1660208201528284603483013760609190911b6bffffffffffffffffffffffff1916603491909201908101919091526048019392505050565b7f4e487b71000000000000000000000000000000000000000000000000000000005f52601160045260245ffd5b8082018082111561133b5761133b611603565b5f60208284031215611653575f5ffd5b81518015158114611662575f5ffd5b9392505050565b5f6001820161167a5761167a611603565b506001019056fea2646970667358221220735015c08e28d68921c2d5956dac4a7ce25bcaf9439df5e1b38b6138832dab3364736f6c634300081c0033",
  "linkReferences": {},
  "deployedLinkReferences": {}
}